:100000000C9464060C948C060C948C060C948C0650
:100010000C948C060C948C060C948C060C948C0618
:100020000C948C060C948C060C94B8180C942A1919
:100030000C948C060C948C060C948C060C948C06F8
:100040000C948C060C948C060C948C060C948C06E8
:100050000C948C060C948C060C948C060C94A109C0
:100060000C948C060C948C060C948C060C948C06C8
:100070000C948C060C948C060C948C060C948C06B8
:100080000C942E100C948C060C948C060C948C06FC
:100090000C94EB090C948C060C948C060C948C0636
:1000A0000C948C060C948C060C948C065C085F08EF
:1000B0004E085208560880088008800863086708C0
:1000C0006B087108750880087B08D208D708DC081F
:1000D000E608F0083A093A093A09FA0804090E094B
:1000E000180925093A092D0905A84CCDB2D44EB9F5
:1000F0003836A9020C50B9918688083CA6AAAA2ACB
:10010000BE000000803FD5F08D14A1C881CFD9F189
:10011000AF20002E202D2D2D202020202D2D2D2D07
:100120002D2D2D2D2D2D004849474853434F524525
:1001300000304C42E1910F0F91E3447C3000060502
:10014000050205050305050600000000E0808000AB
:1001500000E020200000F090900000C080808080AF
:10016000C040404040F880000000F808000000F85F
:1001700020000000F000000000E040400000020706
:10018000020707070705070500054C4556454C00C3
:1001900047414C415859210054484500594F55207A
:1001A0005341564544004C4556454C004E45585425
:1001B00000434F4E475241545321000000000000BD
:1001C00000000000000080C06020B65F7F5EBC5869
:1001D000B858B070E0C080000000000000000000CF
:1001E0000000000000000000007EF3B030EACA0A00
:1001F000CA3AB0B0B0B0210CFAFCFF7E800000001B
:10020000000000000000000000000000103E73C16C
:10021000F3FFD050505B599101A000B05F3F1F0C1D
:100220000300000000000030507060E0C8C8C888BB
:10023000988C8C1D9FFFAB5DFB899CA8F68E46B108
:100240001AF2E044C40488088820100000F8FFF780
:1002500085220513CEFD020506060E3384112222E7
:100260008404838020D81F030205FEF7A0861800AF
:10027000000707010503030207070304000000004D
:100280000100000000010100060100000000070756
:10029000040000000000000000000000000000F06A
:1002A00030202020E0E0E0E0C0C0E0E0E0A0A020BE
:1002B000202040404080800000000000000000003E
:1002C000203078FC1F068301000000011F0F070784
:1002D00007070F0F1F7EFEFCF080000909F2BC30FB
:1002E000200000000000003F7CFE1FFC50DC664741
:1002F0004767D7D7575E1EFCFCFCDF1FFFFFE0F807
:10030000FCFFFF7F7CF0E040000000000040E0FFC9
:10031000E0C181A0A0A08181C1C0E0F0FEFEFCFE92
:10032000FFFFFFFFFF0F0F0F0C0000000000000099
:1003300000008070DCFEFFFFFFBF3F0F070FFFFFD5
:10034000FF3B1B0B070FDFF303030000000000005F
:10035000000000000000030003030303010000008D
:100360000003030300000000000000030000000081
:100370000000000000000000000080C0E0F0F8FC79
:10038000FCFCFCFCFCFCFCF8F8E0C00000000000F9
:100390000000000000000000000000000080C3C159
:1003A00061303838F8F8F0E0E0C0E13918FFFFF4C8
:1003B000000000000000000000000000000000003D
:1003C0003839110203079F0E3EFD7F7F7F7F3F7FFD
:1003D0003D3F1F3E7C1000000000000000000000B8
:1003E0000000000001800000000000C1C1E0E0F05A
:1003F000F0F0F8F8F8FAF77F1E0C0CF8F0F8F0F0CF
:10040000E0C0000000000000706E7A7E7F7F7F7F7A
:100410007F7F7F7F7F7F7F7F7F7F010000000001E4
:100420001F7F7F3F3F3F3F7800000000000000003B
:1004300000000000000000000000000000000000BC
:10044000000000000000005041555345440000F8F2
:10045000F8F8F8F8F8F8F0C000C0C0C0C0C0C0C0DC
:10046000C080000000C0C0C0C0C0C0800000C0C0CC
:10047000C0C0C0C080000080C0C0C0C0C0C0C080BC
:10048000000000000000000000000000F0F8F8F894
:10049000F8F8F8F8F8F00000C0C0C0000000C0C0D4
:1004A000C0000080C0C0C0C0C0C08000C0C0C0804C
:1004B000C0C0C00000C0FFFCF800000000FFFFFF4C
:1004C000C0C0C0C0C00000020E3EFEFCF0C08000F4
:1004D00000F7F7F7070707FFFFFF00C0E7F7E78719
:1004E00007E7F7F700E7F7F707070707070600FF33
:1004F000FFFF0777F7F7F7E70000000000000000B4
:1005000000000000FEFEFE00000000FEFEFE0000F7
:10051000FFFFFF000000FFFFFF00E4F7F7E707071A
:10052000F7F7E700FFFFFF07070707070407FFFFCD
:10053000FF00070400F7F7E707070FFFFFFF087842
:10054000F8F8F8FBFFFFFFFE00FFFFFFF8F8F8FFE9
:10055000FFFF007FFFFFFBFBF8FFFFFF007FFFFFB8
:10056000F8F8F8F8F81800FFFFFFF8F8FBFBFB19A4
:100570000000000000000000000000007FFFFFF806
:10058000F8F8F8FFFFFF0000FFFFFFF8F8F8FFFFA3
:10059000FF00FFFFFFFBFBF8FFFFFF00FFFFFF0077
:1005A000000000000000FFFFFF00000000FFFFFF51
:1005B000000000FFFFFF000000000000000000003E
:1005C000007F7F7F000000000000000000000000AE
:1005D000000000000000000000000000000000001B
:1005E000000000000000000000000000000000000B
:1005F00000000000000000000000010707070400E1
:1006000000000000000000000000000000000000EA
:1006100000000000000000000000000000000000DA
:1006200000000000000000000000000000000000CA
:1006300000000000000000000000000000000000BA
:1006400000000000000000000000000000000000AA
:10065000000000000000000000000000000000009A
:10066000000000000000000000000000000000008A
:10067000000000000000000000000000000000007A
:10068000000000000000000056312E32004C45569C
:10069000454C3A200048415244004E4F524D414C87
:1006A0000045415359004D4F4445203A00534156AF
:1006B00045203A204F46460053415645203A204FA8
:1006C0004E00534F554E443A204F464600534F5527
:1006D0004E443A204F4E0001020408102040800092
:1006E000000000003E5B4F5B3E3E6B4F6B3E1C3E8E
:1006F0007C3E1C183C7E3C181C577D571C1C5E7FA2
:100700005E1C00183C1800FFE7C3E7FF0018241820
:1007100000FFE7DBE7FF30483A060E262979292655
:10072000407F050507407F05253F5A3CE73C5A7F3F
:100730003E1C1C08081C1C3E7F14227F22145F5F95
:10074000005F5F06097F017F006689956A606060CF
:10075000606094A2FFA29408047E040810207E200A
:100760001008082A1C08081C2A08081E101010105F
:100770000C1E0C1E0C30383E3830060E3E0E0600A5
:100780000000000000005F00000007000700147F69
:10079000147F14242A7F2A122313086462364956D0
:1007A00020500008070300001C2241000041221CC9
:1007B000002A1C7F1C2A08083E08080080703000B0
:1007C0000808080808000060600020100804023EC5
:1007D0005149453E00427F40007249494946214106
:1007E000494D331814127F1027454545393C4A4975
:1007F00049314121110907364949493646494929B4
:100800001E000014000000403400000008142241C3
:100810001414141414004122140802015909063E4C
:10082000415D594E7C1211127C7F494949363E4147
:100830004141227F4141413E7F494949417F090968
:1008400009013E414151737F0808087F00417F4103
:10085000002040413F017F081422417F404040403A
:100860007F021C027F7F0408107F3E4141413E7F92
:10087000090909063E4151215E7F09192946264989
:1008800049493203017F01033F4040403F1F204060
:10089000201F3F4038403F6314081463030478046A
:1008A000036159494D43007F414141020408102032
:1008B000004141417F0402010204404040404000A9
:1008C0000307080020545478407F284444383844B3
:1008D000444428384444287F385454541800087E2F
:1008E000090218A4A49C787F0804047800447D4081
:1008F000002040403D007F1028440000417F400020
:100900007C047804787C080404783844444438FC37
:100910001824241818242418FC7C080404084854BB
:1009200054542404043F44243C4040207C1C204078
:10093000201C3C4030403C44281028444C9090906F
:100940007C4464544C4400083641000000770000A9
:10095000004136080002010204023C2623263C1E08
:10096000A1A161123A4040207A385454555921557A
:10097000557941215454784121555478402054559B
:1009800079400C1E527212395555555939545454E8
:100990005939555454580000457C410002457D4268
:1009A0000001457C40F0292429F0F0282528F07C1E
:1009B000545545002054547C547C0A097F493249DF
:1009C0004949323248484832324A4848303A41412F
:1009D000217A3A42402078009DA0A07D39444444C9
:1009E000393D4040403D3C24FF2424487E49436635
:1009F0002B2FFC2F2BFF0929F620C0887E0903200E
:100A0000545479410000447D413048484A323840CE
:100A100040227A007A0A0A727D0D19317D26292931
:100A20002F28262929292630484D40203808080833
:100A30000808080808382F10C8ACBA2F102834FA54
:100A400000007B000008142A142222142A1408959E
:100A500000220095AA005500AAAA55AA55AA00008E
:100A600000FF00101010FF00141414FF001010FFFE
:100A700000FF1010F010F0141414FC001414F70010
:100A8000FF0000FF00FF1414F404FC141417101FDF
:100A900010101F101F1414141F00101010F000006D
:100AA00000001F101010101F10101010F010000088
:100AB00000FF101010101010101010FF1000000098
:100AC000FF140000FF00FF00001F10170000FC04CF
:100AD000F414141710171414F404F40000FF00F7B2
:100AE00014141414141414F700F714141417141015
:100AF000101F101F141414F4141010F010F0000044
:100B00001F101F0000001F14000000FC140000F064
:100B100010F01010FF10FF141414FF141010101F09
:100B200000000000F010FFFFFFFFFFF0F0F0F0F01A
:100B3000FFFFFF0000000000FFFF0F0F0F0F0F3837
:100B4000444438447C2A2A3E147E02020606027E71
:100B5000027E0263554941633844443C04407E2090
:100B60001E2006027E020299A5E7A5991C2A492AA1
:100B70001C4C7201724C304A4D4D30304878483030
:100B8000BC625A463D3E494949007E0101017E2A28
:100B90002A2A2A2A44445F444440514A444040445B
:100BA0004A51400000FF0103E080FF000008086B8D
:100BB0006B083612362436060F090F060000181887
:100BC0000000001010003040FF0101001F01011E55
:100BD00000191D1712003C3C3C3C000000000000C6
:100BE000000000240027002A002D00300000000033
:100BF00000250028002B002E00310004040404040A
:100C000003040502020202040302020202060606AF
:100C1000060606040402020204040408020110404D
:100C20008040102040804080080204018040201055
:100C30000201108010204040200000000200090F37
:100C40000000030401000C00000000000000000090
:100C50000000000000000000080B0002020201007A
:100C6000090400000102020000052400100105240F
:100C70000101010424020605240600010705810381
:100C800010004009040100020A00000007050202EA
:100C9000400000070583024000000403090412011C
:100CA0000002EF02014041233680000101020301EE
:100CB00041726475696E6F204C4C430041726475DB
:100CC000626F7900BC2B662B11241FBECFEFDAE0D8
:100CD000DEBFCDBF11E0A0E0B1E0E4E1F4E602C088
:100CE00005900D92AA38B107D9F728E0AAE8B1E03B
:100CF00001C01D92A93FB207E1F716E0C3E6D6E0B6
:100D000004C02197FE010E94C530C236D107C9F741
:100D10000E945A1B0C94FD310C940000CF92DF927C
:100D2000EF92FF920F931F93CF93DF936C017A01A1
:100D30008B01C0E0D0E0CE15DF0589F0D8016D91C0
:100D40008D01D601ED91FC910190F081E02DC6015D
:100D50000995892B11F47E0102C02196ECCFC701C1
:100D6000DF91CF911F910F91FF90EF90DF90CF9087
:100D7000089585ED8093BC008091BC0084FDFCCF7C
:100D800010921F0608954091BF01262F30E0240FD6
:100D9000311D21323105DCF420911F062430C9F4C5
:100DA000FC0180E090E0861758F43091BF0121915A
:100DB000DC01A356BE4FA30FB11D2C930196F3CFB8
:100DC0008091BF01680F6093BF0180E0089581E0CA
:100DD000089582E00895089581E090E030918B01BC
:100DE00020918A01321710F480E090E0919581956E
:100DF0009109089580918B0190918A01891730F4AF
:100E00008F5F80938B0180E090E008958FEF9FEFDC
:100E1000089580918A0190E020918B01821B9109B5
:100E20000895CF92DF92EF92FF920F931F93CF938B
:100E3000DF937C01262F972F8A018091200688233B
:100E400091F0C62FD72F6E01C40ED51ECC15DD052F
:100E500071F06991D701ED91FC910190F081E02D45
:100E6000C7010995F3CF642F822F0E94C306C801E2
:100E7000DF91CF911F910F91FF90EF90DF90CF9076
:100E80000895CF93DF931F92CDB7DEB7698320918A
:100E900020062223D1F020914306203240F021E0A9
:100EA00030E0FC013383228380E090E015C0809124
:100EB0002106E82FF0E0EE5DF94F998190838F5F76
:100EC000809321068093430605C061E0CE01019620
:100ED0000E94C30681E090E00F90DF91CF910895CA
:100EE0008091940108950895089580E090E0089518
:100EF0000E94F8310C9460310C9460310C94603194
:100F00000C9460310C946031CF93DF9300D000D00B
:100F1000CDB7DEB7611571058105910579F09B01AB
:100F2000AC0169833A834B835C830E94F02D298155
:100F30003A814B815C810E94142E03C060E070E016
:100F4000CB010F900F900F900F90DF91CF910895EC
:100F5000DC01ED91FC910190F081E02D0994EF927C
:100F6000FF920F931F93CF93DF938C017B01C0E01F
:100F7000D0E0F701EC0FFD1F6491662361F0D8010A
:100F8000ED91FC910190F081E02DC8010995892B2C
:100F900011F02196EECFCE01DF91CF911F910F91ED
:100FA000FF90EF9008956115710579F0FB010190B4
:100FB0000020E9F73197AF01461B570BDC01ED919B
:100FC000FC910280F381E02D099480E090E0089587
:100FD0004F925F926F927F92EF92FF920F931F93C7
:100FE000CF93DF93CDB7DEB7A1970FB6F894DEBFEE
:100FF0000FBECDBF7C01FA01CB0119A2223008F44B
:101000002AE08E010F5D1F4F422E512C612C712C56
:10101000BF01A30192010E94462EF901CA010150AD
:1010200011096A3014F4605D01C0695CD8016C93E9
:10103000232B242B252B61F7B801C7010E94D3076E
:10104000A1960FB6F894DEBF0FBECDBFDF91CF9152
:101050001F910F91FF90EF907F906F905F904F9056
:101060000895362F90E0FC01E75CF34F4491FC01BA
:10107000E65EF34F2491FC01E550F44F8491882300
:1010800009F451C04423E1F150E0FA013197EF3007
:10109000F105B0F5EA5AFF4F0C94C53090918000ED
:1010A0009F7707C0909180009F7D03C09091800042
:1010B000977F9093800024C094B59F7702C094B529
:1010C0009F7D94BD1DC0909190009F7707C0909127
:1010D00090009F7D03C090919000977F9093900027
:1010E0000FC09091C0009F7703C09091C0009F7D7A
:1010F0009093C00005C09091C200977F9093C2006A
:10110000E82FF0E0EE0FFF1FE351F44FA591B491EB
:101110008FB7F894EC91311103C020952E2301C0B4
:101120002E2B2C938FBF0895CF93DF93DB01482F95
:1011300050E0FA01E65EF34F9491FA01E550F44F66
:101140002491222399F030E0220F331FF901E1525C
:10115000F44FC591D491F901E351F44F25913491A5
:101160002FB7F894E881E92BE8832FBF109711F48B
:1011700060E004C0AF3FB10529F461E0DF91CF9199
:101180000C943108FA01E75CF34FE4914E2F50E0E4
:10119000FA013197EF30F10508F06CC0EB59FF4FC1
:1011A0000C94C53084B5806884BDA7BD68C084B583
:1011B000806284BDA8BD63C08091800080688093F8
:1011C0008000B0938900A093880059C0809180006E
:1011D000806280938000B0938B00A0938A004FC000
:1011E00080918000886080938000B0938D00A093F0
:1011F0008C0045C080919000806880939000B093EF
:101200009900A09398003BC08091900080628093E9
:101210009000B0939B00A0939A0031C08091900001
:10122000886080939000B0939D00A0939C0027C09D
:101230008091C00080688093C0008091C0008F7B47
:101240008093C000A093CF001AC08091C00080623C
:101250008093C000A093D00012C08091C20088602B
:101260008093C2008091C2008B7F8093C200A093C4
:10127000D20005C0A038B1050CF07FCF79CFDF9147
:10128000CF9108953FB7F8948091E5019091E601E0
:10129000A091E701B091E80126B5A89B05C02F3FBA
:1012A00019F00196A11DB11D3FBFBA2FA92F982F8C
:1012B0008827820F911DA11DB11DBC01CD0142E007
:1012C000660F771F881F991F4A95D1F708958F924F
:1012D0009F92AF92BF92CF92DF92EF92FF926B01FB
:1012E0007C010E9442094B015C01C114D104E1045C
:1012F000F104F1F00E944209DC01CB01881999093F
:10130000AA09BB09883E9340A105B10570F321E00D
:10131000C21AD108E108F10888EE880E83E0981E11
:10132000A11CB11CC114D104E104F10419F7DDCFF3
:10133000FF90EF90DF90CF90BF90AF909F908F90F5
:1013400008951F920F920FB60F9211242F933F937F
:101350008F939F93AF93BF9380918C0190918D0158
:10136000A0918E01B0918F013091E40123E0230F11
:101370002D3720F40196A11DB11D05C026E8230FCD
:101380000296A11DB11D2093E40180938C019093DE
:101390008D01A0938E01B0938F018091E501909112
:1013A000E601A091E701B091E8010196A11DB11DF0
:1013B0008093E5019093E601A093E701B093E801E3
:1013C000BF91AF919F918F913F912F910F900FBE41
:1013D0000F901F9018951F920F920FB60F92112425
:1013E0002F933F934F935F936F937F938F939F932D
:1013F000AF93BF93EF93FF938091B900887F8036BE
:1014000009F49CC068F5883209F45BC090F480311F
:1014100009F454C038F4882309F4F6C0883009F47C
:101420004DC0F6C0883109F44CC0803209F45DC06B
:10143000EFC0803409F468C048F4803309F455C023
:10144000883309F0E5C080931D06D8C0803509F4C3
:101450004FC0883509F45DC0883409F0D9C0D6C0C2
:10146000883909F4C7C0A8F4883709F467C038F48C
:10147000883609F463C0803709F460C0C9C0883871
:1014800009F4B8C0803909F45FC0803809F0C0C0E1
:101490005BC0803B09F486C038F4803A09F466C02A
:1014A000883A09F47FC0B4C0803C09F4A7C0883CE6
:1014B00009F4A4C0883B09F48AC0AAC08091FA0547
:1014C00010C090911C0680911B06981770F5E09152
:1014D0001C0681E08E0F80931C06F0E0E550FA4F69
:1014E00080818093BB0085EC86C080931D068EC0F2
:1014F000E0911C0681E08E0F80931C068091BB005A
:10150000F0E0E550FA4F808390911C0680911B0615
:101510006EC0E0911C0681E08E0F80931C068091C6
:10152000BB00F0E0E550FA4F808380911E068111E8
:101530006DC081E08093F90584EA61C083E0809307
:101540001F061092E301CFCF8091E301803208F0B3
:1015500051C0E091E30181E08E0F8093E30180911F
:10156000BB00F0E0ED53FE4F8083BDCF85EC809350
:10157000BC0010921F068091E301803230F4E091AC
:10158000E301F0E0ED53FE4F10826091E30170E063
:10159000E091C101F091C20183EC91E009951092B4
:1015A000E30136C084E080931F061092C0011092C0
:1015B000BF01E091BD01F091BE0109958091BF018D
:1015C000811105C081E08093BF0110929D01E091DF
:1015D000C00181E08E0F8093C001F0E0E356FE4F22
:1015E00080818093BB009091C0018091BF019817CA
:1015F00008F479CF85E88093BC000AC085EC80931D
:10160000BC0010921F0604C010921D060E94B9066D
:10161000FF91EF91BF91AF919F918F917F916F91CA
:101620005F914F913F912F910F900FBE0F901F90A0
:101630001895BC0180E090E00C9467098FB12CB143
:1016400093B130E02095309520743327A90123E031
:10165000559547952A95E1F7292F30E0209530954B
:10166000207133273595279535952795242B80951F
:10167000807F822B0895CF93C82F81E0809320062E
:101680008CE380934206109221061092430660E09C
:1016900084E496E00E9441076C2F84E496E00E9467
:1016A0004107CF910C94CB15109294013E983F982E
:1016B00008953E9A3F9A81E0809394010895DC0159
:1016C00090E0E9EFF1E091119FEF00249193919365
:1016D000919391930394D1F759961C921E92589727
:1016E00057961C921E9256970895FC019681962358
:1016F00021F48581682381E009F480E00895603851
:101700007105D0F440345105B8F4E7EDF6E080E11E
:10171000849FD001A0781124A60F4770E40FF11D1B
:101720008491A750BE4F222319F06C91862B03C0E1
:1017300080956C9186238C9308952F923F924F92BF
:101740005F926F927F928F929F92AF92BF92CF9251
:10175000DF92EF92FF920F931F93CF93DF93CDB75A
:10176000DEB729970FB6F894DEBF0FBECDBFFC01E0
:101770006A3069F4248D808D918D38E0239F800D2F
:10178000911D1124918F808F178A168AAAC06D30FF
:1017900009F4A7C099878887F48C338C228C608CDD
:1017A000718C0689178900381105C4F0A885B985A0
:1017B0005C962C915C97422F50E056968D919C91AF
:1017C0005797B6E02B9F800D911D1124E885F98570
:1017D000978B868B258D21116EC083C0F0E46F1628
:1017E000710424F7C80125E0F29E800D911D11249B
:1017F00018161906DCF68F2D90E09C838B83C301AD
:10180000A8E0FA9E800D911D11241816190674F691
:10181000B5E06B9FB0011124FB01E152F94FFA834F
:10182000E98330E08885998504969E838D83E981DC
:10183000FA81E490353009F4E12C430188E0482E28
:10184000E0FC02C0532C01C0522C51100BC03210CE
:1018500009C0E6944A948B819C81880E991E4110A0
:10186000EFCF1BC068018C2D801B8F1590F75401A2
:101870008A2D88198F1568F4252DA501B6018D8153
:101880009E813F830E947F0B9FEFA91AB90A3F8177
:10189000EFCFAFEFCA1ADA0AE6CF3F5FEB81FC81E8
:1018A0000E0F1F1F89819A8101969A838983363092
:1018B00009F0BDCF7BCF6AEF64039001659F300DC7
:1018C000112420583F4F281739075CF4A885B985A3
:1018D000ED91FC9111970190F081E02D6AE0CD012E
:1018E000099581E090E029960FB6F894DEBF0FBE0F
:1018F000CDBFDF91CF911F910F91FF90EF90DF90BF
:10190000CF90BF90AF909F908F907F906F905F909F
:101910004F903F902F90089508958F929F92AF928D
:10192000BF92CF92DF92EF92FF920F931F93CF93CC
:10193000DF93EC01E62E5C018CE0A80EB11C8E0159
:101940000E5F1F4F4501F401F1904F018F2D8F73F2
:10195000C82ED12CF801608170E08B8D9C8D21E028
:10196000A60104960E947F0BE11009C0F294F69440
:10197000F69483E0F82281E08F0D833000F18A8DA8
:10198000813061F4F801608170E08B8D9C8D21E0E5
:10199000A6014F5F5F4F04960E947F0B8A8D8430B3
:1019A00071F4F8016081862F90E0BC016F5F7F4F7A
:1019B0008B8D9C8D21E0A60104960E947F0B0F5F0A
:1019C0001F4F0A151B0509F0BECFDF91CF911F9164
:1019D0000F91FF90EF90DF90CF90BF90AF909F90CE
:1019E0008F9008957F928F929F92AF92BF92CF92E5
:1019F000DF92EF92FF920F931F93CF93DF93EC014F
:101A00007C018CE0E80EF11C8E010E5F1F4F6E0111
:101A1000E6E1CE0ED11C83E0882E912CA12CB12CB6
:101A2000F7016081F62FFF737F2E629566956695AC
:101A300063706F5F8A8D8130E1F4760E272D30E080
:101A4000488D898D90E0840F911D821793078CF447
:101A50007E886F8970E080E090E00E948407670DC7
:101A6000F8016083788C0E94F02DA50194010E94FA
:101A7000142E8A8D8430D9F4F80180818230A0F44C
:101A8000788C698D70E080E090E00E948407760E8B
:101A90009F898E89890FF80180830E94F02DA5010E
:101AA00094010E94142E03C0861BF80180836150AC
:101AB000F0E46F9F700C1124F70171927F010F5FAA
:101AC0001F4FEC15FD0509F0ABCFDF91CF911F91B2
:101AD0000F91FF90EF90DF90CF90BF90AF909F90CD
:101AE0008F907F9008950895089508950895F901BD
:101AF0008130D9F498E2908394E191839AE09383C2
:101B000026E0228325E0248324E026838583653034
:101B100008F487C08FE0838383E28083693008F410
:101B200080C0928383E086837CC08230A1F483E20C
:101B3000808388E081838FE083838AE0828385E0ED
:101B4000848384E0868381E08583693008F469C0FA
:101B50008CE0828366C0833061F49BE0908398E0E0
:101B600091838383928386E0848381E0868382E00D
:101B700057C0843049F482E380838EE1818383837C
:101B80008CE0828386E048C0853061F489E0808300
:101B900098E0918383E08383928396E094838683A5
:101BA00084E03EC08630C1F4962F990F960F919530
:101BB000935D90839EE1918393839EE092839CE06A
:101BC0009483868391E0958360FF2BC0808382E0BD
:101BD000838383E1848325C0873071F483E2861B8D
:101BE00080838EE1818383838DE082838AE0861BFC
:101BF00084836F5F668313C0883098F0862F880FC8
:101C0000860F8195865D80838EE18183838380E169
:101C1000861B828384E1861B84838AE0868381E03D
:101C20008583413019F48081815004C0423019F419
:101C30008081825080830895FC01808191810C9481
:101C4000FE2DEF92FF920F931F93CF93DF9300D05F
:101C5000CDB7DEB78C0183E290E09A838983CE0111
:101C600001960E941C0E882311F185E192E09A836F
:101C70008983CE0101960E941C0E780195E3E91A32
:101C80009EEFF90AF701808386E192E09A838983C7
:101C9000CE0101960E941C0EF801E453FE4F808392
:101CA00081E0F701208131812430394D09F080E055
:101CB0000F900F90DF91CF911F910F91FF90EF90B8
:101CC00008950F931F93CF93DF9300D0CDB7DEB766
:101CD0008C0180E00E94BA1580E090E0A0E0B3E4BF
:101CE000F80182879387A487B58780E090E0A0E819
:101CF000BFE386879787A08BB18B12821382128AEB
:101D000083E0838B82E290E09A838983CE010196FF
:101D10000E941C0E823319F484E0F801838B8FEF4C
:101D2000F80185830F900F90DF91CF911F910F9154
:101D300008950F931F93CF93DF931F92CDB7DEB714
:101D40008C0169830E941C0E6981681729F0F801D3
:101D5000808191810E94062EC8010F90DF91CF9162
:101D60001F910F910895CF92DF92EF92FF920F9300
:101D70001F93CF93DF9300D000D000D0CDB7DEB754
:101D80007C0185E492ECA7E3BFE089839A83AB836F
:101D9000BC83CE0101966C0100E110E0F601619177
:101DA0006F011E830D83CE0105960E94990E0F5F71
:101DB0001F4F0431110591F7F3E0EF0EF11C04E21F
:101DC00010E0F70161917F011E830D83CE0105961E
:101DD0000E94990E0F5F1F4F0E34110591F7269642
:101DE0000FB6F894DEBF0FBECDBFDF91CF911F912C
:101DF0000F91FF90EF90DF90CF900895CF92DF92F8
:101E0000EF92FF920F931F93CF93DF9300D000D0F8
:101E1000CDB7DEB78C014C836B830E94210EF80195
:101E20003A964C816B8181112AC0C80183539E4F21
:101E30001192E817F907E1F781E0D8015A968C93DF
:101E40005A9788E01F968C93F801E253FE4F108258
:101E50003797608333964083433049F081E290E0C6
:101E60009A838983642FCE0101960E94990E84E0A3
:101E700099EDF801E553FE4F918380831AC07F01ED
:101E800084E5C82ED12CDA82C982CE0101960E9447
:101E90001C0EF70181937F01FFEFCF1ADF0A87E164
:101EA000C81682E0D80679F781E0F801E253FE4FC8
:101EB0008083D8011496ED91FC91159715821482B8
:101EC0001682F801E353FE4F10821496ED91FC91B7
:101ED0001597A054BE4F9C918AEE891B848398016C
:101EE00020533E4FC80186539E4F189609531E4FEC
:101EF000FC0140816C91D8018C910E94770D0F906C
:101F00000F900F900F90DF91CF911F910F91FF9045
:101F1000EF90DF90CF900895CF92DF92EF92FF92F3
:101F20000F931F93CF93DF93E0919201F091930170
:101F3000CF0102969093930180939201C081D18149
:101F4000C11580E8D80759F4809171008D7F809386
:101F500071001092910046981092970176C081E02E
:101F600080939701C13080E8D80761F4E091900137
:101F7000F0919101CF010296909393018093920189
:101F8000C081D181DF77209769F481E08093980147
:101F900046983FE9C32E3FE0D32EE12CF12CCAEF47
:101FA000D0E014C08E0120E030E060E472E48FE005
:101FB00090E0A90198010E94142E69017A0181E044
:101FC000C81AD108E108F10810929801E0915E0664
:101FD000F0915F060995811103C081E0809398011B
:101FE000E0919201F0919301CF01029690939301B9
:101FF00080939201208131812115310569F0DE0144
:102000000E94682EDC01CB0129E0B595A795979534
:1020100087952A95D1F703C08FEF9FEFDC011092CF
:1020200090002AE020939100D0929900C0929800ED
:102030008093990190939A01A0939B01B0939C0186
:1020400080917100826080937100DF91CF911F9128
:102050000F91FF90EF90DF90CF9008951F920F9215
:102060000FB60F9211242F933F934F935F936F936B
:102070007F938F939F93AF93BF93EF93FF93809141
:10208000990190919A01A0919B01B0919C01892B9B
:102090008A2B8B2B49F180919801811104C098B152
:1020A00080E4892788B98091990190919A01A09143
:1020B0009B01B0919C01181619061A061B06B4F470
:1020C0008091990190919A01A0919B01B0919C01FE
:1020D0000197A109B1098093990190939A01A09366
:1020E0009B01B0939C0102C00E948C0FFF91EF9165
:1020F000BF91AF919F918F917F916F915F914F9120
:102100003F912F910F900FBE0F901F901895CF9376
:10211000DF931F92CDB7DEB76983DC01ED91FC91AF
:102120000280F381E02D41E050E0BE016F5F7F4F00
:1021300009950F90DF91CF91089583E08093E90096
:102140008091F200882319F08AE38093E8000895D3
:102150002F923F924F925F926F927F928F929F92B7
:10216000AF92BF92CF92DF92EF92FF920F931F93A5
:10217000CF93DF93CDB7DEB7AE970FB6F894DEBF3F
:102180000FBECDBF8EA36AEA262E66E0362E1F86CE
:102190001E869E012F5F3F4F39011091AE060E85BE
:1021A000812F90E0002E02C0959587950A94E2F762
:1021B00080FFF3C2D1018C91882309F4EEC28EA076
:1021C000811002C081508C93D1018C914BEA849F85
:1021D000412D1124469555E0B52EB40EF1013497EA
:1021E0008081B9E1BB1508F4E7C290E0889763E00D
:1021F00070E00E94B1306D8B603108F0DDC29B0150
:1022000033273F8B2E8B2A56394F84E0840FF901F8
:1022100050E1859FE00DF11D112480A118160CF0EE
:10222000A8C2AB2DB0E0B98FA88FF901B0E1BB9E79
:10223000E00DF11D112480A381E090E0A0E0B0E06A
:1022400004C0880F991FAA1FBB1F0A95D2F780955B
:1022500081238093AE0680E1861B8BA34A5FE0E179
:102260004E9FC00111248E889F889A8A898A10E027
:10227000A12C00E0188A18A21F8E1D86288D398D8A
:102280002F5F3F4F3CA72BA7AC014A56594F5EA783
:102290004DA72FEF2A8F90E0462F50E05E8F4D8F95
:1022A00081E0860FA82FB0E0BAA7A9A7492E512C2C
:1022B00049895A89441655060CF033C12D8D3E8D3F
:1022C00024193509D901A095B095BDA3ACA32F5F02
:1022D0003F4F8BA49CA4829EF001839EF00D929EA2
:1022E000F00D1124FC8FEB8F9A8C292D30E0A90181
:1022F0004A56594F5C8B4B8B812C912CA9A5BAA5C2
:10230000A21BB30BB8A7AFA3782D5D89591708F4AA
:10231000EFC0AE89BF89E989FA89EA17FB070CF497
:10232000E7C0F92E1AA280E06F1528F1E72EAF2D35
:10233000B0E0AA56B94FBE14E0F0FD0120E1E29EE4
:10234000E00DF11D1124D0A03AEA3D1530F04FE721
:10235000D41609F46DC2D1106DC2F91609F4B6C0D5
:10236000F61609F4B3C0E71609F4B0C0EB10ABC021
:10237000ADC0F394D9CF992309F1940140E050E026
:10238000A82FB0E0E88DF98DE217F307BCF0EB89D8
:10239000FC89E40FF51FD0A0DD2059F0F3017F0187
:1023A000E618F708EA16FB0624F4F190FD10F7CFC3
:1023B0008DC02F5F3F4F405F5F4FE4CF6F3040F5E0
:1023C000940140E050E0AFA1B8A5CB88DC88AC0D0B
:1023D000BD1DE82EF12CE88DF98DE217F307C4F04E
:1023E000FD01E40FF51FD0A0D9A2DD2061F0F301BB
:1023F0006F01C618D708CE14DF042CF4D190C9A001
:10240000DC10F6CF63C02F5F3F4F405F5F4FE3CFDD
:10241000F9E1BF16E9F09201482F50E0CD8CDE8C37
:10242000C216D306ACF0EDA5FEA5E20FF11DF0A09B
:10243000FF2059F0F301DF01A619B709A417B5076A
:1024400024F4A191AF11F7CF41C02F5F3F4FE6CFEA
:102450008114910421F12FEF270F40E1249F900177
:102460001124A2012A56394FA82FB0E0ED8DFE8D20
:10247000E417F507A4F0F901E40FF11DD0A0DD2069
:1024800059F0F3017F01E618F708EA16FB0624F479
:10249000F190FD10F7CF1AC04F5F5F4FE7CFC82E06
:1024A000D12CE12CF12CC092B106D092B206E09270
:1024B000B306F092B406CB8CDC8C8C9D90018D9D84
:1024C000300D112405C08C3008F4C3C120E030E089
:1024D000DD844D2D50E04217530750F42D87209195
:1024E000B1062F8F3AA138A31B2D062FA72E988B4C
:1024F0004FEF841A940AAB8DBC8DECA1FDA1AE0FF9
:10250000BF1FBC8FAB8F2B893C89205F3F4F3C8B1B
:102510002B8B8B1408F4F8CE9F5F3A8D3F5F3A8F78
:10252000C5CEE989FA893196FA8BE98B6F5F862FE0
:10253000FD898F1B8BA0881508F4ABCE7801BF8D69
:102540002B2F30E040E050E02093B1063093B206EC
:102550004093B3065093B406ED85EE2309F42CC1E5
:10256000D090A006F8A1FF23E9F06894D2F8D092A9
:10257000A00682E380935A0846E956E08DEF20E0FA
:1025800030E0FA01E20FF31F90A1911180A32F5FB9
:102590003F4F20313105A9F7405F5F4F8150833EA7
:1025A00071F70AC18D84682D70E080E090E00E9490
:1025B000462EC9016894D2F8D092A00630916008E6
:1025C000323011F484E10BC0880F991F8A3F9105C6
:1025D00028F4220F275E20935A0803C08AEF8093C5
:1025E0005A08BA2C988980E0202F30E0492F50E01B
:1025F000F901E41BF50B6B2D70E032973CF4E12FF1
:10260000F0E0E61BF70B32970CF4A8C0DB01E4E026
:10261000AA0FBB1FEA95E1F7D92E0D15E0F0FD01D9
:10262000ED0DF11DEA56F94FC0A00F2EFAEA9F2ECC
:10263000F02D9C1470F00F2EFDEFCF2EF02DC81A48
:102640000F2EFAEA8F2EF02D8C1408F0DDC08F5F6C
:10265000C0A2D394E2CFAB2D1A17A0F0F901B0E1DC
:10266000AB9FE00DF11D1124EA56F94FB0A1BB3A22
:1026700038F4BDEFB81BBB3A08F4CBC08F5FB0A3F2
:10268000AF5FEACFE12FF0E0FA8BE98B6F01B4E0A6
:10269000CC0CDD1CBA95E1F7902E9915A8F4F60143
:1026A000E90DF11DEA56F94F40A0AAEA8A2E8414DA
:1026B00048F0BDEF4B2E481AAAEAA41508F0ABC0AB
:1026C0008F5F40A29A94E9CFD12EBD14B8F4FA01DD
:1026D000A0E1DA9EE00DF11D1124EA56F94FC0A0E9
:1026E000BAEABC1548F0BDEFCB2EC81ABAEABC1541
:1026F00008F094C08F5FC0A2DA94E7CF4217530767
:102700004CF49F5F492F50E04F5F5F4F42175307D4
:102710000CF40150E989FA896E177F070CF064CF39
:10272000B394402F50E0292F30E02F5F3F4F241704
:1027300035070CF059CF115057CFFA01E90FF11DB1
:10274000EA56F94F30A13B3A08F46BC09F5F215025
:10275000382F390FE91688F7832FA394FA1460F104
:10276000F0E1AF9EA00111242DEF281B9889891B51
:10277000EFCF87FF21C081E090E0A0E0B0E004C08F
:10278000880F991FAA1FBB1F0A95D2F780959091B9
:10279000AE0689238093AE060FC081E090E0A0E0F2
:1027A000B0E004C0880F991FAA1FBB1F0A95D2F77B
:1027B000809518231093AE062E853F852F5F3F4FDF
:1027C0003F872E873FEF231A330A4E855F854430BB
:1027D000510509F0E2CCAE960FB6F894DEBF0FBEFD
:1027E000CDBFDF91CF911F910F91FF90EF90DF90C0
:1027F000CF90BF90AF909F908F907F906F905F90A1
:102800004F903F902F9008950F2EFBEACF2EF02D82
:102810001ECFBBEA33CFABEA4A2E52CFABEACA2E69
:1028200069CF2B3A18F0322F30A390CF3BEAFCCF80
:10283000E1E0EAA38C3008F049CEF301282F30E024
:10284000AF0146195709421753072CF441914D1116
:10285000F7CFE39470CD8F5FF301E20FF31FD082C7
:10286000F8CFCF92DF92EF92FF920F931F93CF9307
:10287000DF936B01770FEE08FF08F7FE1BC0EC013A
:102880006DE20E94A8078C0144275527BA014C1914
:102890005D096E097F092AE0CE010E94E807800FDA
:1028A000911FDF91CF911F910F91FF90EF90DF90DB
:1028B000CF9008952AE0B701A601DF91CF911F9133
:1028C0000F91FF90EF90DF90CF900C94E807FC0100
:1028D0008091EC01811103C08FEF9FEF08959FB7A6
:1028E000F89482E08093E9002091F20030E0121623
:1028F000130614F421E030E02115310559F0289831
:1029000084E68093EB018091F10080838091F20056
:10291000882319F09FBFC90108958BE68093E800D2
:10292000F9CF2FB7F89483E08093E9009091E80005
:10293000892F807295FF04C09091F20080E4891B7A
:102940002FBF08958F929F92AF92BF92CF92DF9246
:10295000EF92FF920F931F93CF93DF935C016B0174
:102960007A0180910701882309F45BC08091EC0112
:10297000882309F456C08091EA0180FF05C0809148
:10298000E00082608093E000E70110E00AEF83E05E
:10299000882E9AE3992E2097D9F10E9491148111E3
:1029A0000AC0015009F43DC061E070E080E090E0B1
:1029B0000E946709F0CF282F30E0C217D3070CF42C
:1029C0008C2F4FB7F8948092E9009091E80095FF22
:1029D0001DC0282F30E0C21BD30BF601982F915059
:1029E00020F081918093F100FACFC20ED31E112303
:1029F00019F09092E80009C08091E80085FD06C0BA
:102A00009092E80011E0209709F010E04FBFC3CF8B
:102A10001111C3CF5D9884E68093E9011E141F0451
:102A200044F081E090E0F5019383828380E090E0C0
:102A300001C0C701DF91CF911F910F91FF90EF90DF
:102A4000DF90CF90BF90AF909F908F90089580912E
:102A5000F10181110DC082E08093ED0184E080934B
:102A6000EE011092F0011092EF0181E08093F101EC
:102A70008DEE91E008953F924F925F926F927F9218
:102A80008F929F92AF92BF92CF92DF92EF92FF927E
:102A90000F931F93CF93DF933C01EB018A01CA018F
:102AA000861B970B97FF03C091958195910933245D
:102AB00033948034910554F0312C0C171D0764F0C9
:102AC0007E0180E490E0C0E0D0E00CC0C80100E4EA
:102AD00010E0E12CF12C06C078018E0180E090E03E
:102AE000C0E4D0E028014E185F085C01AC1ABD0AB2
:102AF000B7FE03C0B194A194B108620157FE03C0B0
:102B00002FEFC21AD20AD594C794C817D90714F068
:102B10008FEF01C081E0882E880F99080E151F05E0
:102B2000BCF021E0332019F0A701BE0102C0AE01C4
:102B3000B701C3010E947F0BCA18DB08D7FE04C08F
:102B4000C80DD91DC40CD51C8FEFE81AF80AE6CFC2
:102B5000DF91CF911F910F91FF90EF90DF90CF9079
:102B6000BF90AF909F908F907F906F905F904F90AD
:102B70003F9008956FEF70E0681B71098AE00E9432
:102B800094086FEF70E08BE00E9494086FEF70E0A4
:102B900089E00C94940820914306909142062132DA
:102BA00008F04AC080911F068111FCCF32E03093BB
:102BB0001F0631E030931E063FEF30931D06109242
:102BC0001C0620931B06A2E2B6E04BEF55E0FA018B
:102BD0003E2F341B321718F43D913193F9CF1092E8
:102BE000FA052091FA05990F922B9093FA0590918E
:102BF000F905913061F41092F9059091FA059093DE
:102C0000BB009091BC0093FDF8CF95EC01C095EE10
:102C10009093BC0090911F069230E1F390911D06B5
:102C20009F3F79F080911D06803241F080911D0612
:102C3000803331F084E005C081E003C082E001C050
:102C400083E0109221061092430610922006089508
:102C5000EF92FF920F931F93CF93DF9381E20E9435
:102C60003B0B80E00E943B0B8FE70E943B0B82E214
:102C70000E943B0B80E00E943B0B87E00E943B0BD5
:102C8000C9EFD1E0FF24F3948CE3E82EF092200604
:102C9000E0924206109221061092430660E484E41A
:102CA00096E00E94410700E010E0FE01E00FF11FF6
:102CB000608184E496E00E9441070F5F1F4F00315E
:102CC000110599F70E94CB15609685E0C93FD8079A
:102CD000E9F6DF91CF911F910F91FF90EF9008954A
:102CE0002F923F924F925F926F927F928F929F921C
:102CF000AF92BF92CF92DF92EF92FF920F931F930A
:102D0000CF93DF93CDB7DEB728970FB6F894DEBF29
:102D10000FBECDBF5A01822E912C9C01280D391D6A
:102D200037FDC4C0803891050CF0C0C09B01200F56
:102D3000311D37FDBBC0603471050CF0B7C0AB016D
:102D400077FF04C044275527461B570B477055276C
:102D50009B0177FF02C0295F3F4FE3E03595279540
:102D6000EA95E1F777FF08C02150310968E070E08B
:102D7000DB01A41BB50BAD01602F669566956695CA
:102D800070E0077011F06F5F7F4FDB01A20FB31F80
:102D9000BA83A98339017694762C66247794679454
:102DA000680E791EE12CF12C00E010E02301B0E860
:102DB0004B0E511C68E070E0DB01A41BB50BBC831B
:102DC000AB8369817A812617370709F46FC02830F1
:102DD000310509F46BC02F3FBFEF3B070CF45BC01C
:102DE000B201600F711FDB01A750BE4FBE83AD83E0
:102DF000D801A60DB71DA750BE4F6C0160E070E072
:102E0000681579050CF047C0E0E8CE16D10409F446
:102E100042C0D7FC34C02F3FFFEF3F0709F442C048
:102E2000FB01EE0DFF1DEA0DFB1DE491042E01C018
:102E3000EE0F0A94EAF73C90E329EC934115510513
:102E4000F1F027303105D9F0FB01EE0DFF1DEA0D41
:102E5000FB1DE4912E2E312CF1010B8002C0F59563
:102E6000E7950A94E2F7F887EF83ED81FE813080E1
:102E7000EF81F885E3291F01ED81FE8120826F5FDC
:102E80007F4FED81FE813196FE83ED83FFEFCF1AF8
:102E9000DF0A1196B5CF2F5F3F4F00581F4FE80C48
:102EA000F91C8FCF4115510579F6E9CF28960FB659
:102EB000F894DEBF0FBECDBFDF91CF911F910F9170
:102EC000FF90EF90DF90CF90BF90AF909F908F904A
:102ED0007F906F905F904F903F902F900895CF9389
:102EE000DF93C6E9D6E08A819B8142E250E062E24C
:102EF00070E004960E943B158A819B814CE550E06E
:102F00006CE570E00496DF91CF910C943B15FC01C9
:102F10008485958597FD0BC09FB7F89482E08093D8
:102F2000E9008091F2009FBF90E0019608959FB75D
:102F3000F89482E08093E9008091F2009FBF90E0D6
:102F400008954091F3085091F4082091F1083091D0
:102F5000F20842175307B4F49091E8009570E1F33A
:102F60009091E80092FD19C08093F1008091F308E0
:102F70009091F40801968F739927892B19F48EEF9D
:102F80008093E8008091F3089091F4080196909363
:102F9000F4088093F30881E0089580E00895CF92CB
:102FA000DF92EF92FF920F931F93CF93DF931F92C5
:102FB000CDB7DEB7182F062FE42E862F880F8E5F31
:102FC00099830E94A11783E00E94A117F12EC12EC0
:102FD0009981D92E8C2D8F19801798F4F601E7FE70
:102FE00002C0849101C080810E94A117182F80E047
:102FF0000E94A1178123FFEFCF1ADF0A8111EACFC8
:1030000001C081E00F90DF91CF911F910F91FF9050
:10301000EF90DF90CF900895DF92EF92FF920F93A1
:103020001F93CF93DF93D82E8A017B01E40EF51E08
:10303000EB01CE15DF0571F0D7FE03C0FE018491D0
:1030400001C088810E94A11721968111F2CF8FEFD4
:103050009FEF01C0C801DF91CF911F910F91FF90A9
:10306000EF90DF900895615030F02091F100FC0165
:1030700020830196F8CF289884E68093EB01089589
:103080000E94911490E00895CF93DF931F92CDB7E3
:10309000DEB7FC018485958597FD05C02FEF3FEFD6
:1030A000358724870BC0CE0101960E9467140197D3
:1030B00019F4898190E002C08FEF9FEF0F90DF91AC
:1030C000CF9108950F931F93CF93DF931F92CDB7A6
:1030D000DEB78C01FC018485958597FF0EC0CE017B
:1030E00001960E946714019719F4298130E002C00B
:1030F0002FEF3FEFF80135872487F8018485958508
:103100000F90DF91CF911F910F9108950F931F930F
:10311000CF93DF931F92CDB7DEB782E0898342E47D
:1031200050E068E57CE080E80E940C180E942715BA
:10313000DC0112960D911C9113970115110569F090
:10314000D801ED91FC910280F381E02DBE016F5F0B
:103150007F4FC801099597FF07C089810F90DF91C4
:10316000CF911F910F910895F80100851185E5CF4A
:103170001F920F920FB60F9211248F939F938091FD
:10318000E1009091E100937F9093E10083FF0FC0F5
:103190001092E90091E09093EB001092EC0092E322
:1031A0009093ED001092EC0198E09093F00082FF74
:1031B00020C093E09093E9009091F200992319F0D8
:1031C0009AE39093E8009091E901992339F0909166
:1031D000E90191509093E901992389F19091EB01D4
:1031E000992339F09091EB0191509093EB01992341
:1031F00041F184FF10C08091E2008E7E8160809357
:10320000E2008091E1008F7E8093E1008091EA01ED
:103210008E7E806111C080FF16C08091E2008E7E9C
:1032200080618093E2008091E1008E7E8093E100D6
:103230008091EA018E7E81608093EA0104C05D9AEC
:10324000CDCF289AD6CF9F918F910F900FBE0F9020
:103250001F9018951F920F920FB60F921124CF92C4
:10326000DF92EF92FF920F931F932F933F934F9311
:103270005F936F937F938F939F93AF93BF93EF93DE
:10328000FF93CF93DF93CDB7DEB76C97DEBFCDBF93
:103290001092E9008091E80083FFEDC168E0CE0163
:1032A00045960E94331882EF8093E8008D8987FF4E
:1032B00005C09091E80090FFFCCF03C09EEF909373
:1032C000E800982F907609F0C6C09E892F89188D46
:1032D00091110CC0803829F48091F0088093F1009E
:1032E00002C01092F1001092F10048C1422F50E04C
:1032F000512B913051F4811141C14130510509F0F8
:103300003DC18091F0088D7F0BC0933061F4811135
:1033100035C14130510509F031C18091F00882601A
:103320008093F0082BC1953041F48091E80080FF34
:10333000FCCF20682093E30021C1963009F05FC0E4
:10334000EB8CFC8C1092E9001092F4081092F308B8
:10335000123091F51092F2081092F1080E9486182E
:1033600099E0BE016F5F7F4FDB01E92F1D92EA9567
:10337000E9F799831A8391E09E8390EA98879AEF00
:1033800099872091F3083091F408275F3F4F3C83E1
:103390002B838D831092E9001092F4081092F308A9
:1033A000F092F208E092F10849E050E080E00E94DB
:1033B0000C180E948618E2C0F092F208E092F10820
:1033C0000E942715DC011296ED90FC901397E114F2
:1033D000F10409F4C0C0D701ED91FC910480F5819E
:1033E000E02DBE016B5E7F4FC7010995009719F074
:1033F0000CF0C4C0C7C0F701E084F184E8CF973077
:1034000009F4C0C0983021F481E08093F100B6C087
:10341000993009F0B3C0837009F0B4C0E7E7F1E078
:1034200081E021E036E39081992361F08093E90007
:103430002093EB0091919093EC003093ED008F5F1F
:10344000873089F78EE78093EA001092EA008F892F
:103450008093EC0193C08B8D9C8D1092E9001092AB
:10346000F4081092F3089093F2088093F108898D84
:10347000811156C08E899D89913A59F4813209F0A3
:1034800081C047E050E060E071E080E00E940C18ED
:1034900075C0913209F076C0833289F4888D90E04E
:1034A000982F88272F89822BA0E0B0E08093080115
:1034B00090930901A0930A01B0930B015FC0803281
:1034C00069F48091E80082FFFCCF67E080E091E042
:1034D0000E9433188BEF8093E80006C0823209F017
:1034E0004DC08F89809307018091EF08882319F0E0
:1034F000EEEFFAE002C0E0E0F8E080910001909188
:103500000101A0910201B0910301803B9440A1050B
:10351000B10509F07BC08091070180FF93C076C0A0
:103520000E942715DC0112960D911C91139701152D
:10353000110541F1D801ED91FC910190F081E02D50
:10354000BE016B5E7F4FC8010995811117C0F8015C
:1035500000851185ECCF113009F44EC0133091F481
:103560008F89882309F445C0823081F440E867E000
:103570008CEB9CE00E94CF17882321F08EEF809384
:10358000E80079C081E28093EB0075C0813029F4B6
:1035900040E86BE080EB9CE0EDCF833099F70E9430
:1035A0002715DC011296ED90FC9013978E010F5FAA
:1035B0001F4F6801E114F10479F0D701ED91FC91FE
:1035C0000680F781E02DB801C7010995080F111D8C
:1035D000F701E084F184EECFD8011C92F60101904E
:1035E0000020E9F73197BF016C197D0940E0C60161
:1035F000C1CF6AE97CE002C06EE97CE0611571052B
:1036000009F2FB01449150E080E840CF0FB6F894F6
:10361000A89580916000886180936000109260009E
:103620000FBEA895EE3F2AE0F20739F08091FE0A1E
:103630009091FF0A91838083A1CF1092FF0A10928C
:10364000FE0A9CCFEE3F8AE0F80731F0808191813D
:103650009093FF0A8093FE0A87E797E79183808320
:103660009BE088E10FB6F894A895809360000FBEA8
:103670009093600083CF6C960FB6F894DEBF0FBEB8
:10368000CDBFDF91CF91FF91EF91BF91AF919F910E
:103690008F917F916F915F914F913F912F911F91EA
:1036A0000F91FF90EF90DF90CF900F900FBE0F9093
:1036B0001F901895CF93DF93CDB7DEB76D970FB6F8
:1036C000F894DEBF0FBECDBF789484B5826084BD10
:1036D00084B5816084BD85B5826085BD85B5816016
:1036E00085BD80916E00816080936E001092810094
:1036F000809181008260809381008091810081604F
:10370000809381008091800081608093800080910F
:1037100091008260809391008091910081608093FC
:103720009100809190008160809390008091C10011
:1037300084608093C1008091C10082608093C10049
:103740008091C10081608093C1008091C30081603D
:103750008093C3008091C00082608093C0008091FC
:10376000C20081608093C20080917A00846080935F
:103770007A0080917A00826080937A0080917A004A
:10378000816080937A0080917A00806880937A00CB
:103790001092EC011092F0081092EA018091D7008B
:1037A00081608093D70080EA8093D80089B58061DA
:1037B00089BD89B5826089BD09B400FEFDCF61E095
:1037C00070E080E090E00E9467098091D8008F7CD3
:1037D00080618093D8008091E000807F8093E0003A
:1037E0008091E1008E7E8093E1008DE08093E20085
:1037F000559A209AEEEFFFE7859194918B3F9C4D6F
:1038000019F481E08093EF0881EC80937C0085B10E
:10381000806F85B9249884B1866E84B95E9A5F986A
:103820008AB1806D8AB9769A6E9881B3806F81BBB8
:10383000899880B38D7080BB10928B0110928A01A1
:10384000109221061092430610921F0611E0109369
:103850001E061092F90561E082E00E94310861E0E5
:1038600083E00E9431088091B9008E7F8093B90077
:103870008091B9008D7F8093B90088E48093B8006F
:1038800085E48093BC001093B80006E011E04DE0A1
:10389000F42EF00EF80184910E943B0B0F5F1F4F36
:1038A000F012F8CF00E210E0EE24E3943CE3D32ED4
:1038B000E0922006D0924206109221061092430612
:1038C00060E484E496E00E94410720E2F22E60E08A
:1038D00084E496E00E944107FA94F110F8CF0E9428
:1038E000CB150150110921F702E010E00E941E0BD8
:1038F00082FF40C02D980E941E0B84788438C1F04E
:103900000E941E0B8471843181F52D9A88EC90E021
:103910000E94190B2E981A83098360E0CE0101964C
:103920000E94990E84EF91E00E94190B2E9A18C004
:103930002D9A88EC90E00E94190B2F981A83098326
:103940006FEFCE0101960E94990E84EF91E00E94E4
:10395000190B2F9A0E941E0B84788438D9F3D0CF8C
:103960000E941E0B84718431D9F388EC90E00E9490
:10397000190BBCCF2D9A81E280938C0882E090E0F5
:103980009A838983CE0101960E941C0E882319F028
:103990000E94590B02C00E94540B86E996E00E94D7
:1039A000210E882331F081E090E09093960180937E
:1039B00095019E012F5F3F4F19012FB7F894809119
:1039C0008C0190918D01A0918E01B0918F012FBF3C
:1039D00040919108509192086091930870919408D9
:1039E00020919508222349F020918D08821B809315
:1039F0009608109295080C94E92984179507A60754
:103A0000B70788F4481B423010F40C94E92983B7B7
:103A1000817F83BF83B7816083BF889583B78E7FA3
:103A200083BF0C94E92921E02093950880938D08A9
:103A300090938E08A0938F08B093900820918C08E3
:103A4000820F911DA11DB11D809391089093920842
:103A5000A0939308B0939408809188089091890866
:103A600001969093890880938808809195019091A0
:103A70009601892B09F08EC280918008843058F01D
:103A8000D0907F088D2D880FD80E8D2D819596E2D0
:103A9000D92ED80E02C086E2D82E0091730810915C
:103AA0007408D80119968C9119971A968C930E94D4
:103AB0001E0BF801818780917308909174080E9411
:103AC0005F0B8090770890907808A0907908B0906C
:103AD0007A0820E030E04CE052E4C501B4010E94D5
:103AE0006B2F18162CF420E030E040E850E42CC096
:103AF00040907B0850907C0860907D0870907E0814
:103B000023E333E343E35FEBC301B2010E946B2F76
:103B1000181634F52FE832EC45EF5CE3C301B2012F
:103B20000E94772E60937B0870937C0880937D08B9
:103B300090937E080E94DD2F20E030E040E850E4C2
:103B40000E94702F9B01AC01C501B4010E94772E29
:103B500060937708709378088093790890937A0837
:103B60000D2D10E07801F3E0EF0EF11C80917F083D
:103B7000A70128E0829F400D511D112480917308F8
:103B80009091740821E06CE170E004960E947F0B34
:103B900080917F08A8014E5F5F4F38E0839F400D02
:103BA000511D1124809173089091740821E06BE1FC
:103BB00070E004960E947F0B80917F08A70168E067
:103BC000869F400D511D11248091730890917408B7
:103BD00021E06BE170E004960E947F0B80917F08EA
:103BE000A8014C5F5F4F78E0879F400D511D112465
:103BF000809173089091740821E06BE170E0049665
:103C00000E947F0B809173089091740820E230E04D
:103C1000DC0157963C932E93569759961C930E931E
:103C2000589720919401222319F06DEC76E002C0A0
:103C300062EC76E00E94AF07E0907308F0907408A1
:103C400080E290E0F701978B868B88E08D0D90E005
:103C5000918F808F83E290E09A838983C1010E94D3
:103C60001C0E182F882319F068EB76E002C06DEA6D
:103C700076E0C7010E94AF07E0907308F0907408E7
:103C800080E290E0D70157969C938E93569780E1FF
:103C90008D0D90E059969C938E9358978091720861
:103CA000833070F081E290E09A838983C1010E94A1
:103CB0001C0E833018F48093720802C010927208B0
:103CC00066EA76E0C7010E94AF07809172088130F2
:103CD00049F028F0823071F465E976E005C061EAC8
:103CE00076E002C06AE976E08091730890917408EA
:103CF0000E94AF07809180088430F1F480917308AE
:103D00009091740820E230E0FC01378B268B28E18B
:103D10002D0D30E0318F208F6DE876E00E94AF07E7
:103D20004091710850E060E070E02AE080917308F3
:103D3000909174080E94E807809175089091760828
:103D40000E94F20C60E080917508909176080E94C4
:103D50008D0CE0907308F0907408F4E0EF0EF11C05
:103D600068E0C7010E94750B882319F081E08093F9
:103D7000700864E0C7010E94750B882369F181E037
:103D800080936F08809164008E7F8093640080919F
:103D90007A00806480937A0080917A0086FDFCCF5F
:103DA000E0907800F09079000E9442096701E12CD0
:103DB000F12C7601DD24CC246C0D7D1D8E1D9F1D04
:103DC000611571058105910511F00E94F52D809115
:103DD0006400816080936400E0907308F090740840
:103DE00024E0E20EF11C60E1C7010E94750B8823FC
:103DF00059F080917F088F5F80937F0890918008B1
:103E0000891302C010927F0860E8C7010E94750BF9
:103E1000882349F080917F08811102C08091800839
:103E2000815080937F0860E2C7010E94750B811169
:103E300006C060E4C7010E94750B8823D9F0809109
:103E40007F08811111C080919401882311F40C9492
:103E5000F0290E94540B6091940182E090E09A83D3
:103E60008983C1010E94990E80917F08813011F4ED
:103E70000C94F4290091730810917408780134E0CF
:103E8000E30EF11C60E2C7010E94750B8823C9F0A4
:103E900090917F08933049F480917108815011F01E
:103EA0000C94022A88E00C94022A923051F48091FA
:103EB0007208811103C09093720803C081508093EF
:103EC000720860E4C7010E94750B8823D9F08091C5
:103ED0007F08833059F4909171089F5F993011F0F9
:103EE0000C94062A81E0809371080CC0823051F452
:103EF00080917208823019F41092720803C08F5FAB
:103F00008093720889E690E0D80157969C938E932F
:103F1000569788E390E059969C938E93589768E85B
:103F200076E0C8010E94AF07609177087091780829
:103F30008091790890917A080E94E42EDC01CB01EF
:103F40000FE128E74EE454E065E070E00E9470164F
:103F50000E94281680916F08882371F081E090E01C
:103F60009093960180939501409172086091710839
:103F700086E996E00E94FE0E80917008882351F039
:103F800082E090E090939601809395018DE698E011
:103F90000E94610E8091950190919601019711F018
:103FA0000C94D3270091980610919906F801818509
:103FB00082870E941E0BD80119968C9380919806D7
:103FC0009091990668E004960E94750B8823A9F1E8
:103FD000809165088823A1F01092650883E290E043
:103FE0009A838983C1010E941C0E882331F185E1E7
:103FF00092E09A83898360E0C1010E94990E1DC0FE
:1040000081E08093650883E290E09A838983C1010F
:104010000E941C0E882389F004E510E0F801E45B9F
:10402000F94F60811A830983C1010E94990E0F5FC5
:104030001F4F0731B2E01B0789F780916508811196
:1040400049C180919C0690919D060E94F20C80913E
:10405000A00685FD3FC18091AF06E0919A06F091E0
:104060009B06863138F090E04597982F990F890F7D
:10407000848301C014828091630881115DC08091A6
:104080005908811105C09091AF06993109F054C0CB
:104090009091A0068F5F809359089D7F98609093C0
:1040A000A006813099F5809171008D7F8093710019
:1040B00080E596E090939301809392019093910113
:1040C0008093900180E991E090935106809350068F
:1040D0008CE291E0909353068093520628EC30E0F6
:1040E00030935506209354069093570680935606B6
:1040F00086E990E0909359068093580688E592E00F
:1041000090935B0680935A060E948C0F8091590809
:10411000843641F480E00E94BA158091A006816047
:104120008093A006E0919A06F0919B06858181110B
:10413000D1C081E08583CEC01091A5061123F1F096
:10414000809198069091990660E204960E94750B02
:10415000882331F011501093A5061092B5060EC0B9
:104160000E941E0B85FF0AC08091B50691E0980F52
:104170009093B506843010F00C940A2A1091A5068D
:104180001F30F0F4809198069091990660E40496AF
:104190000E94750B882331F01F5F1093A5061092C3
:1041A000B5060EC00E941E0B86FF0AC08091B506A0
:1041B00091E0980F9093B506843010F00C94132A78
:1041C0000E941E0B282F221F2227221F9091A0063B
:1041D00020FB91F99093A006809198069091990602
:1041E00064E004960E94750B882309F46DC08091E9
:1041F000AE0690E000E010E09C01002E02C0359574
:1042000027950A94E2F720FD59C0809171008D7FB7
:104210008093710080E596E09093930180939201E2
:10422000909391018093900184E893E090935106DC
:104230008093500683E290E0909353068093520659
:1042400020E233E0309355062093540690935706AE
:104250008093560620E931E03093590620935806A2
:1042600090935B0680935A060E948C0FF801EA56E1
:10427000F94F8091A506982F990F890F885D808B43
:1042800085E3848B8091AF06863138F090E04597C6
:10429000982F990F890F8B5C848B81E090E0A0E0D0
:1042A000B0E004C0880F991FAA1FBB1F0A95D2F760
:1042B0002091AE06822B8093AE0606C00F5F1F4F83
:1042C0000430110509F098CF80E00E94A81080E02A
:1042D0000E94A810209165088091980690919906F7
:1042E000222381F020E330E0FC01378B268B24E190
:1042F00030E0318F208F67E474E00E94AF070E94A6
:104300002816E7C50E945F0B80915D08813051F44B
:1043100007E224E248E753E069E170E08CE590E0D1
:104320000E94701680915D08823051F40AE224E206
:104330004CE952E066E170E08CE590E00E94701676
:1043400080915D08833051F40BE224E24BEB51E0A5
:1043500065E170E08CE590E00E9470168091A50602
:10436000C0909A06D0909B06D88ACF8623E0829F81
:1043700060011124DE8ACD8A460133E2830E911C4E
:10438000AF85B88914966C91149715968C911597F2
:10439000882309F42AC1893198F48F5F15968C938C
:1043A000159716968C9116978D5F16968C930BE049
:1043B0002CE041E351E065E370E0C4010E94701617
:1043C000EF85F8898581893129F48681882311F068
:1043D000815086831C8A1B8AE12CF12C4D885E88D3
:1043E000F9E24F0E511CAF85B88916964C91842F77
:1043F0006AE00E949130282F30E0E216F3060CF0BC
:10440000C6C0AF85B88912960D911C9113970C5FA9
:104410001F4FCC24C394D12CCE18DF08DA8AC98A66
:10442000CB88DC88D88ECF8A21E0A701465C5F4F1D
:10443000B201C8010E947F0B21E04AE350E04E190F
:104440005F09B201C8010E947F0B21E04AE350E0FE
:10445000B2016E0D7F1DC8010E947F0B21E04AE36F
:1044600050E0B2016E197F09C8010E947F0B6701FD
:10447000612C712C21E030E03A8F298F6C147D047F
:104480000CF07BC069897A8977FD0EC071E0C71A8C
:10449000D1088F89988D0296988F8F8BA989BA89B8
:1044A000A80FB91FBA8BA98BBFEF6B1A7B0AE98DD6
:1044B000FA8D3296FA8FE98F29893A892E0F3F1F9C
:1044C0003A8B298BB201660D771D7E876D8721E0BF
:1044D00056017AE3A70EB11CA5016D857E85C80142
:1044E0000E947F0BC201861997099C878B8721E068
:1044F000A501BC01C8010E947F0B21E0AAE3AA2EFE
:10450000B12CAC18BD08A5016D857E85C8010E943F
:104510007F0B21E0A5016B857C85C8010E947F0B84
:1045200053019AE3A90EB11C21E0A501D201AC0D03
:10453000BD1DBE87AD87BD01C8010E947F0B21E074
:10454000A5015201AC18BD08B501C8010E947F0B3E
:10455000EAE3F0E0E619F709FC87EB8721E0AF0119
:104560006D857E85C8010E947F0B21E04B855C85AF
:10457000B501C8010E947F0B81CFFFEFEF1AFF0A40
:104580002B893C89225031093C8B2B8B2CCF842FDB
:104590000E94BA150D891E89025D1F4F0815190565
:1045A00084F1F5E3EF2EF12C0E94F02D23E030E0B2
:1045B00040E050E00E94142E672B682B692B51F4C9
:1045C000EF85F8898281938120E0A701B4010496E8
:1045D0000E947F0BFFEFEF1AFF0A20E4E216F104BE
:1045E00019F73FEF831A930AD9CF062E000C770BE9
:1045F0006B5C7F4F0BE02CE041E351E0C4010E9473
:1046000070168091A00682FD07C083FD05C09091C1
:1046100058089F5F9093580884FD0FC090915E08E2
:104620009A3058F010925E088F7B109257081092C3
:10463000560880628D7F8093A0068091A00681FB42
:10464000662760F985FF40C1809156089091570810
:104650000196909357088093560880919C069091FC
:104660009D060E948D0C0E946F1720915608309174
:1046700057082A3E310568F5E0919806F0919906B1
:104680002832310550F486E290E0978B868B80E4E7
:1046900090E0821B930B918F808FC9018897CC97F4
:1046A00038F486E290E0978B868B88E190E00BC02F
:1046B0002436310550F086E290E0978B868B8CE7AC
:1046C00090E0821B930B918F808F61EB71E0CF01A3
:1046D000A5C02C3241E03407E8F462E171E0621BCE
:1046E000730B769567958091A00682608093A006F3
:1046F00016163CF4062E000C770B880B990B0E94C3
:104700006709E0919A06F0919B06909156088AEE0F
:10471000891BA1C02E3561E0360770F580915D08D8
:10472000883070F5809198069091990624E330E0E6
:10473000DC0157963C932E93569724E130E059962E
:104740003C932E9358976CEA71E00E94AF078091DA
:1047500098069091990621E330E0FC01378B268B77
:104760002CE130E0318F208F66EA71E00E94AF07C4
:104770008091A0068D7F83C02836F1E03F0758F472
:1047800080915D08883060F4E0919A06F0919B0674
:1047900088E6821B60C0243843E0340708F041C03B
:1047A00080915D08883009F040C080919806909112
:1047B000990625E230E0DC0157963C932E935697FC
:1047C00024E130E059963C932E9358976CE971E0C0
:1047D0000E94AF07809198069091990626E330E0F9
:1047E000FC01378B268B2CE130E0318F208F68E97C
:1047F00071E00E94AF0780919806909199062EE291
:1048000030E0DC0157963C932E93569724E230E03B
:1048100059963C932E93589760E971E00E94AF0738
:1048200030C02C3DB5E03B07C0F480915D08883076
:1048300041F58091A00682608093A006E0919A06DF
:10484000F0919B06C9018458934065E070E00E9496
:104850009D308AE0861B848314C02C3D354089F44A
:1048600080915D08883069F482E290E09A838983C0
:1048700062E3C1010E94990E8091A006816080933D
:10488000A00680915608909157088836914009F00B
:10489000A7C280915D08883008F0A2C29091A0065E
:1048A0009F7D9093A00610925708109256088F5F34
:1048B00080935D0810925E0826E638E0409160081B
:1048C00060E00E94770D8CC2809166086111869528
:1048D00090915808981708F4D7C010925808809102
:1048E0005608909157080196909357088093560860
:1048F00080915B088F5F80935B0860915E084091B8
:10490000670820915C08909169086A3008F07BC0C4
:10491000841708F078C0291708F075C019821A8228
:104920001B821C821D8210916808169508E0011BED
:10493000195F653008F480C50E94F02D2EE130E04B
:1049400040E050E00E94142E672B682B692B09F081
:1049500073C521E0298B80916C088A30F0F007FD47
:1049600000E010310CF01FE0612E012E000C7708E2
:10497000202F002E000C330BC301821B930B97FDDD
:10498000019695958795820F931FBC01635071091D
:104990007C8B6B8BE02E1F8630C00E94F02D22E0B6
:1049A00030E040E050E00E94142E61307105810536
:1049B0009105A9F639C060916C086B3008F03EC5CE
:1049C00070E06F5F7F4F072E000C880B990B0E94E1
:1049D0008407613071058105910509F02FC50E949A
:1049E000F02D23E030E040E050E00E94142EDC0186
:1049F000CB010196A11DB11DE80E8E2D90E086150C
:104A00009705CCF211C0291720F010925C08409352
:104A10005B0820915B0830E080916A0890E0840F89
:104A2000911D821793071CF0E6E5F8E01BC0109279
:104A30005B0880915F088F5F80935F0890916B089F
:104A4000891790F36F5F60935E0810925F08109271
:104A50005C0826E638E04091600880915D080E947D
:104A6000770DE2CFDF0151978C918293A6E0E63C6F
:104A7000FA07C1F7E6EBF6E080E18E0F11928E1394
:104A8000FDCF81E00E94A8106091A006669561703C
:104A900080919C0690919D060E948D0CE12CF12C3A
:104AA0008091AE0690E00E2C02C0959587950A94F1
:104AB000E2F780FF0DC0F701EA56F94F648970E014
:104AC000808903E023E04EE751E090E00E947016F9
:104AD000BFEFEB1AFB0AE8E0EE16F10409F7C12C70
:104AE000D12CE12CF12C188A1F8621EF3FEF3E8755
:104AF0002D87198A1B8A712C8FEF870D20E1829FE9
:104B0000F0011124F88FEF8B6F857889605F7F4FFC
:104B10007E8B6D8B8F8598898A54994F2C01A12C9F
:104B2000B12CAF85B889AA56B94FBA8FA98FD201D7
:104B30001C91112371F07501EE0CFF1CEA0CFB1C9B
:104B4000B8E2EB0EF11C7092AF06CD84DE8431E04A
:104B50003B8B8FEF810F8E3708F05FC003E023E0BF
:104B600044E851E0B601C7010E9470160A2DA11455
:104B7000B10471F08FEF8A0DE98DFA8DE80FF11D08
:104B800080A1811709F437C5612C0F3011F407C0DB
:104B9000612CD20111968C91811709F43BC500E07C
:104BA0004201EF85F8898E1A9F0A772069F0EF8914
:104BB000F88DE80DF91D8081811709F43BC530E0BF
:104BC000F9E17F1202C009C030E0ED89FE89E80DED
:104BD000F91D8081811709F43BC5912C662041F1B4
:104BE000332309F448C5809198069091990620E0F6
:104BF000A601B70104960E947F0B002309F43DC56E
:104C0000809198069091990620E0A601B7016E5F09
:104C10007F4F04960E947F0B0FC01F37F9F403E00B
:104C200023E041E851E0B601C7010E9470167AC046
:104C30000023A1F03111E4CF992081F080919806F2
:104C40009091990620E0A6014E5F5F4FB7016E5F1D
:104C50007F4F04960E947F0B611012C517FF62C040
:104C600003E023E044E851E0B601C7010E9470165A
:104C700080915A08811106C01F3F39F01F5FD20191
:104C80001C934EC01F3F09F04BC0D2011C92809173
:104C900071008D7F80937100E0E5F6E0F093930161
:104CA000E0939201F0939101E093900120E931E0CB
:104CB000309351062093500669E170E070935306DB
:104CC0006093520680E293E09093550680935406D9
:104CD0007093570660935606A0E0B0E8B09359066B
:104CE000A09358060E948C0F4091B1065091B206D5
:104CF0006091B3067091B4068091A1069091A206CE
:104D0000A091A306B091A406840F951FA61FB71FFC
:104D10008093A1069093A206A093A306B093A40645
:104D200031E0398B4FEFA41AB40A6FEF461A560AD6
:104D300070E1A716B10409F0FACE73948D859E85B3
:104D400003969E878D87AD89BE89B88BAF87BAE100
:104D50007B12D2CE80915A08882319F0815080931B
:104D60005A088091A006CB88C0FA84F98093A006E7
:104D700082FF06C0D988D11003C08B7F8093A00624
:104D80000E946F17E091A50623E0E29FC001112465
:104D90008896F0E0EA5BF74F69E170E0208122231A
:104DA00089F06F5F7F4F9B01220F331F620F731FCC
:104DB0006F507109161617069CF403E023E047E8CC
:104DC00051E00CC06150710970976230710531F784
:104DD00003E023E047E851E060E070E00E947016D5
:104DE00080919806909199062FE530E0DC01579666
:104DF0003C932E93569702E010E059961C930E9325
:104E000058974091A1065091A2066091A306709117
:104E1000A4062AE00E94E8078091980690919906DE
:104E2000FC01178B068B118F008F6AE871E00E94DE
:104E3000AF0720915E0821508091980690919906C5
:104E4000293038F5E7E0F0E0DC015796FC93EE936B
:104E500056972FE030E059963C932E935897409107
:104E60005D0850E060E070E02AE00E94E8076FE231
:104E700080919806909199060E94A80740915E083B
:104E800050E060E070E02AE08091980690919906E9
:104E900013C02EE030E0DC0157963C932E935697DA
:104EA0002FE030E059963C932E93589740915D083F
:104EB00050E060E070E02AE00E94E8070E942816B7
:104EC00080916408882329F081E08093650810921E
:104ED00064088091A00680FF66C04091A1065091B1
:104EE000A2066091A3067091A406411551056105C3
:104EF000710509F450C082E090E090939601809390
:104F0000950186E080938E06E0E6F6E080E090E092
:104F10000681178120853185041715072607370775
:104F200018F480938E0605C0019637968630910559
:104F300079F780918E06863090F5A6E8B6E024E0F9
:104F400030E080918E0690E0FD01379728173907F1
:104F500094F0C380D480E580F680C286D386E48650
:104F6000F586C080D180E280CD92DD92EC92215016
:104F70003109DF01E6CF21E020938D0627E0289F4D
:104F8000F001299FF00D1124E05AF94F4683578311
:104F90006087718704C010929601109295018DE68A
:104FA00098E00E94610E00919501109196010230E7
:104FB000110509F004C280919406909195060E9413
:104FC0005F0B809194069091950628E230E0FC01F9
:104FD000378B268B118E108E67E271E00E94AF072F
:104FE00080918D06813009F019C1E0909406F0900F
:104FF0009506D70119968C9119971A968C930E9451
:105000001E0BF70181878AE0E0E8F1E0D101019011
:105010000D928A95E1F78091910690919206A09168
:1050200093068B839C83AD83E0919406F091950663
:10503000178B068B80E190E0918F808F80918F0697
:105040008F5F843119F080938F0602C010928F0613
:1050500080918E06893048F447E0C42ED12CD78A3F
:10506000C68A80E190E0918F808F60918E0670E01B
:105070006F5F7F4FCF010E94311480918F068A307D
:10508000D0F420919006809194069091950646E088
:10509000249F90011124265E3F4FDC0157963C93DC
:1050A0002E93569722E130E059963C932E935897D1
:1050B0006FE50E94A80780919406909195062EE0D6
:1050C00030E0FC01378B268B20E130E0318F208FE0
:1050D000B1010E94D307E0918E0627E0E29FF00124
:1050E0001124E05AF94F46815781608571852AE085
:1050F00080919406909195060E94E807009194068D
:10510000109195060C5F1F4F60E8C8010E94750B57
:10511000882371F0E0919006F0E0E05AF94F81A900
:1051200090EC980F9A3110F48F5F01C081E481AB4D
:1051300060E1C8010E94750B882371F0E091900630
:10514000F0E0E05AF94F81A99EEB980F9A3110F4E4
:10515000815001C08AE581AB64E0C8010E94750BF3
:10516000811106C060E4C8010E94750B882341F0DC
:10517000809190068F5F833009F08FC21092900665
:1051800060E2C8010E94750B882349F08091900667
:10519000811102C082E001C081508093900668E0D6
:1051A000C8010E94750B8823C9F1809191068F3543
:1051B00041F4809192068F3521F4809193068F35CA
:1051C00069F1E0918E0637E0E39FF0011124ED597B
:1051D000F94F8091910690919206A0919306808359
:1051E0009183A28320918E0647E0249F9001112491
:1051F00080E090E040E2FC01E20FF31FE05AF94F3B
:1052000053815F3509F4438301968330910599F703
:1052100080E696E00E94B30E10928D0680918D0676
:105220008111B1C00091940610919506D80119968C
:105230008C9119971A968C930E941E0BF801818706
:1052400093E6E92E96E0F92E0CE010E0C12CD12C6B
:1052500022E0622E712C3AE0432E512C809194066C
:1052600090919506DC0157967C926E9256975996CE
:105270001C930E935897E0919406F091950627E0C1
:1052800030E0378B268B118F008F3FEFC31AD30A84
:10529000B6010E9431148091940690919506EEE03B
:1052A000F0E0DC015796FC93EE93569759961C93C9
:1052B0000E935897D70113964D915D916D917C9106
:1052C0001697452B462B472B29F463E171E00E948A
:1052D000AF073DC0F70120813181428129833A83A4
:1052E0004B831C826DE771E00E94D307B10180916E
:1052F0009406909195060E94D307D70113968D903E
:105300009D90AD90BC901697C40120E02F5F6AE09D
:1053100070E00E94B130CB010097C1F780919406F4
:1053200090919506A201421B5109B6E0B49F9001ED
:10533000B59F300D11242C5B3F4FFC01378B268B22
:10534000118F008F2AE0B501A4010E94E807075FD2
:105350001F4FF7E0EF0EF11C26E0C216D10409F052
:105360007DCF00919406109195060C5F1F4F68E069
:10537000C8010E94750B811193C164E0C8010E94AD
:10538000750B81118DC10E942816809162068823B9
:10539000B1F010928D0610928F0686E080938E06F3
:1053A000109290068FE580939106809392068093E9
:1053B000930610926206109296011092950180E079
:1053C00090E0892B11F40C94DD1C0E9400000C94D9
:1053D000DD1C8091A00681FF02C00C94351DEFCF2B
:1053E0000E94590B0C942B1F83E290E09A838983CF
:1053F000112311F060E001C061E0C1010E94990E2B
:105400000C943A1F809371080C94611F909371085B
:105410000C94821F1092B5068091A506815080934E
:10542000A5060C94BE201092B5068091A5068F5F4C
:105430008093A5060C94E020198A8DCA8B898E0D65
:10544000282F30E0FF24FA94F00EF11AF80E6216BD
:1054500073060CF0F82E412C512CCF2CD12CDE8A67
:10546000CD8A87E0D82EDF0CDF8A80916C0890E02F
:10547000481659060CF0B3CA0E94F02D2AE030E01D
:1054800040E050E00E94142E88248394860EF1019F
:105490009F85892F90E09E878D87CF018219930980
:1054A000AD85BE858A179B0724F481918811F5CFBD
:1054B00039C08091A00686FF8DC01B869090B006F3
:1054C000BB85BB23D1F12FE7298F882D90E0019771
:1054D00045E0489F9001499F300D1124B901645B5C
:1054E0007E4F5B0140E050E0FB01249180E090E0C2
:1054F00030E0DA01AA56B94FBD8FAC8F67E070E09B
:10550000681B790B690102C0D594C7946A95E2F7CC
:10551000C0FE1FC0CD88DE88C80ED91E60E1C61649
:10552000D10468F090915C0880916908981708F0A0
:105530007BCA9FEF491A590A98CF998EC6CFDF2CA4
:10554000D80EAC8DBD8DAD0DB11D9096DC90D110F7
:10555000E9CF01968830910589F63196405F5F4F1B
:105560004035510509F0C1CF40E050E0F5012491EC
:1055700087E090E030E0FA01EA56F94FD901082EB1
:1055800002C0B595A7950A94E2F7A0FF09C0AF89BC
:10559000A81B6F01CA0ED11CD601D98C9096DC9243
:1055A000019760F77FEFA71AB70A405F5F4F40355A
:1055B0005105E1F681E0890D8F3709F481E0809390
:1055C000B0068B85882349F08091A0068064809383
:1055D000A00603C0C988CB8671CF2F852F5F2F8788
:1055E000ED85FE85E20DF31D808280915C088F5F62
:1055F00080935C0897CF809198069091990620E05F
:10560000A6014F5F5F4FB70104960E947F0B66248F
:105610006394BBCA809198069091990620E0A601F8
:105620004F5F5F4FB7016E5F7F4F04960E947F0B05
:1056300001E0B6CA809198069091990620E0A601F3
:10564000B7016F5F7F4F04960E947F0B31E0B8CAAD
:10565000809198069091990620E0A6014E5F5F4FD9
:10566000B7016F5F7F4F04963B8F0E947F0B992499
:1056700093943B8DB3CA011117C0992009F4EECA67
:10568000809198069091990620E0A6014E5F5F4FA9
:10569000B70104960E947F0BE1CA8093900670CDFB
:1056A00081E0809362066FCE992009F4D7CA809179
:1056B00098069091990620E0A6014E5F5F4FB701D2
:1056C0006E5F7F4F04960E947F0BDACF0895EF92B2
:1056D000FF920F931F93CF93DF9300D0CDB7DEB728
:1056E0007C0181E090E09A838983CE0101960E943B
:1056F0001C0E80FF35C08AE090E09A838983CE013A
:1057000001960E941C0E9FEF980F9E3F48F522E3E2
:1057100030E0D70157963C932E93569728E330E01C
:1057200059963C932E9358970BE010E0D701ED91DA
:10573000FC910190F081E02D682FC70109951A8333
:105740000983CE0101960E941C0E0F5F1F4F01318D
:10575000110561F70E94281688EE93E00E94190B4C
:105760000F900F90DF91CF911F910F91FF90EF90CD
:10577000089504970C94672B7F928F929F92AF921B
:10578000BF92CF92DF92EF92FF920F931F93CF932E
:10579000DF9300D000D000D0CDB7DEB71092A208C2
:1057A0001092A10848EE53E060E070E04093A30837
:1057B0005093A4086093A5087093A6088AE191E02D
:1057C0009093A00880939F088FEF9FEF9093AC0871
:1057D0008093AB0810924706109246064093480605
:1057E0005093490660934A0670934B062CE231E0D1
:1057F0003093450620934406109284081092830843
:1058000010928A0810928B0820E120938C089093C4
:10581000890880938808109291081092920810923B
:105820009308109294081092950886E691E0909360
:1058300082088093810884E791E0909386088093A2
:105840008508109298081092970810929A08109262
:10585000990881E080939B0810929C0880939D0892
:1058600010929E088EE591E090936E0880936D08EB
:105870008DE190E00E94CB308C0186E591E0F8014B
:105880009183808381E898E0948F838F168A80E8E3
:10589000878B108E80E4818F84E0828F7801FCE01A
:1058A000EF0EF11C680126E1C20ED11C63E0862ECA
:1058B000912CA12CB12CF8017688678970E080E0EA
:1058C00090E00E948407F7013A97670D6083F80122
:1058D000708C618D70E080E090E00E948407670D1D
:1058E000F70160830E94F02DF7017080A5019401FB
:1058F0000E94142EDC01CB0156E0880F991FAA1FCD
:10590000BB1F5A95D1F7870D911DA11DB11DF70140
:1059100081937F01EC15FD0571F6109376080093D5
:10592000750831E8E32E38E0F32EF0927408E09227
:105930007308DD24D394D09271088DE698E00E941C
:10594000610E8EE491E09093970680939606F09214
:105950009906E092980643E061E086E996E00E94AD
:10596000FE0E87E090E00E94CB30FC0186E491E0DF
:1059700091838083F382E282158214821682F093EF
:105980009B06E0939A068DE190E00E94CB308C015B
:1059900086E591E0F80191838083F48EE38E83E2C3
:1059A000868B89E3878B108E80E4818FD28E78017D
:1059B000FCE0EF0EF11C680126E1C20ED11C43E0B1
:1059C000842E912CA12CB12CF8017688678970E087
:1059D00080E090E00E948407F7013A97670D6083AA
:1059E000F801708C618D70E080E090E00E94840787
:1059F000670DF70160830E94F02DF7017080A5010B
:105A000094010E94142EDC01CB0126E0880F991F1F
:105A1000AA1FBB1F2A95D1F7870D911DA11DB11D8E
:105A2000F70181937F01EC15FD0571F610939D063A
:105A300000939C0681E090E00E94CB3020E737E0A5
:105A400030935F0620935E0620E030E830935D06D9
:105A500020935C0646983E9A47983F9A90939F06FB
:105A600080939E068EE391E090936106809360069A
:105A700081E898E09093950680939406CE01019674
:105A80007C0100E110E01E830D83CE0105960E948B
:105A90001C0EF70181937F010F5F1F4F0431110529
:105AA00091F789819A81AB81BC818534924CA7435F
:105AB000BF4091F404E210E01E830D83CE010596F1
:105AC0000E941C0EF801E15CF94F80830F5F1F4FAD
:105AD0000E34110589F710C0E3E6F6E01082138258
